:020000040800F2
:10000000C01C00204D070008410200084302000800
:10001000470200084B0200084F02000800000000E1
:100020000000000000000000000000005302000873
:10003000550200080000000057020008590200089D
:1000400067070008670700086707000867070008D8
:1000500067070008670700086707000867070008C8
:1000600067070008670700086707000867070008B8
:1000700067070008670700086707000867070008A8
:100080006707000867070008670700086707000898
:100090006707000867070008670700086707000888
:1000A0006707000867070008670700086707000878
:1000B0006707000867070008670700086707000868
:1000C0006707000867070008670700086707000858
:1000D0006707000867070008670700086707000848
:1000E0006707000867070008670700086707000838
:1000F0006707000867070008670700086707000828
:100100006707000867070008670700086707000817
:100110006707000867070008670700086707000807
:1001200067070008670700086707000867070008F7
:1001300000F002F800F05AF80AA090E8000C82449F
:100140008344AAF10107DA4501D100F04FF8AFF27C
:10015000090EBAE80F0013F0010F18BFFB1A43F0A5
:1001600001031847D8130000F81300000A444FF0A9
:10017000000C10F8013B13F0070408BF10F8014B06
:100180001D1108BF10F8015B641E05D010F8016B4B
:10019000641E01F8016BF9D113F0080F1EBF10F8AF
:1001A000014BAD1C0C1B09D16D1E58BF01F801CBD2
:1001B000FAD505E014F8016B01F8016B6D1EF9D555
:1001C0009142D6D37047000000230024002500266A
:1001D000103A28BF78C1FBD8520728BF30C148BFAA
:1001E0000B6070471FB51FBD10B510BD01F06FF952
:1001F0001146FFF7F7FF00F009F801F08DF903B49D
:10020000FFF7F2FF03BC01F091F9000000F034FAAF
:1002100000F014F900F02EF9012000F06AFA6C21C8
:10022000064800F0BDF908E0642000F062FA00F032
:1002300004FA6C21014800F0B3F9F5E7180000203A
:10024000704700BFFEE700BFFEE700BFFEE700BF4C
:10025000FEE7704770477047704700000CB50020FC
:10026000019000906C48006840F480306A49086052
:1002700000BF6948006800F4003000900198401CFD
:100280000190009818B90198B0F5A06FF1D16248BB
:10029000006800F4003010B10120009001E000205F
:1002A00000900098012843D15C48006840F010009D
:1002B0005A4908600846006820F0030008600846B4
:1002C000006840F0020008605348406852494860A6
:1002D0000846406848600846406840F480604860CE
:1002E0000846406820F47C1048600846406840F4A6
:1002F000E81048600846006840F08070086000BF61
:100300004548006800F000700028F9D04248406875
:1003100020F00300404948600846406840F0020071
:10032000486000BF3C48406800F00C000828F9D144
:100330000CBD10B5FFF792FF10BD10B53648006830
:1003400040F00100344908600846406834490840DC
:100350003149486008460068324908402E49086023
:100360000846006820F4802008600846406820F4B1
:10037000FE0048604FF41F008860FFF7DAFF4FF07F
:1003800000602949086010BD10B50021002000223E
:10039000214B5B6803F00C0121B1042906D0082928
:1003A00028D107E0214B224C236027E01F4B204C33
:1003B000236023E0184B5B6803F47010164B5B68F6
:1003C00003F48032022303EB904022B9194B4343DC
:1003D000174C23600DE0104B5B6803F4003323B12E
:1003E000144B4343124C236003E0104B4343104C27
:1003F000236003E00D4B0E4C236000BF00BF064B93
:100400005B68C3F303130C4CE15C094B1B68CB40E6
:10041000074C236010BD0000001002400020024085
:100420000000FFF8FFFFF6FE08ED00E000127A0082
:100430000000002000093D000400002008B5012153
:10044000082000F0BFFC4FF47070ADF800001020E1
:100450008DF8030003208DF802006946044800F07F
:10046000F5F94FF47071024800F09FFA08BD0000E2
:10047000000C014000B591B00121084600F095FC48
:10048000012141F2040000F09DFC754800F06CFD74
:100490000020039073480090734801901020029050
:1004A0000020099004908020059040000690800074
:1004B0000790002008906946694800F0F7FD802009
:1004C000ADF8400018208DF8430003208DF842005D
:1004D00010A9664800F0BAF962480C3800F06EFEC8
:1004E0004FF44040ADF82C004FF48270ADF82E0070
:1004F0004FF40060ADF830000020ADF83200ADF8E8
:1005000034004FF40070ADF836000820ADF8380024
:100510000020ADF83A000720ADF83C000BA9514887
:100520000C3800F071FE012202214E480C3800F018
:1005300038FF01214B480C3800F00BFF11B000BD13
:1005400049494B4A128821F8120049490988491C37
:10055000474A1180704710B50446002380230BE002
:1005600004EA030111B14FF6F07101E04FF470415C
:100570000846FFF7E5FF5B10012BF1DA10BDF0B57F
:100580000446C4F30725C4F30746E7B23046FFF735
:10059000E2FF2846FFF7DFFF3846FFF7DCFFF0BD3C
:1005A00070B506460D4600242D4800F0C1FD002818
:1005B00030D100BF05E056F82400FFF7E0FF601CD3
:1005C000C4B2AC42F7D3002404E00020FFF7B8FF28
:1005D000601CC4B2142CF8DB00202549088005EB10
:1005E0004500C000143081B21D4800F09FFD01217C
:1005F0001B4800F086FD00BF4FF4007000F09CFD2A
:100600000028F9D00021164800F07BFD4FF400705F
:1006100000F0A6FD70BD174A1168002007E0154BD9
:10062000421C53F8222043F82020421CD0B26B28F1
:10063000F5DB104AC2F8AC1170470E4AD2F8AC1183
:100640006B2007E0421E0B4B53F8222043F820207A
:10065000421ED0B20028F5DC064A11607047000047
:10066000300002400C300140E00100200008014051
:10067000140000201800002010B56FF0040000F0F6
:1006800054FC2E4800682E49B0FBF1F02D4908704B
:100690000846007800EB4001C1EBC0104FF6FF7137
:1006A00001EAC0002849088010BD0146254A127899
:1006B0004A434FF0E0235A6100229A611A461269B8
:1006C00042F001021A6100BF4FF0E022106900F011
:1006D00001021AB100F48032002AF5D04FF0E02276
:1006E000126922F001024FF0E0231A6100229A61A0
:1006F00070470146144A12884A434FF0E0235A617A
:1007000000229A611A46126942F001021A6100BF82
:100710004FF0E022106900F001021AB100F48032BB
:10072000002AF5D04FF0E022126922F001024FF0CA
:10073000E0231A6100229A61704700000000002047
:1007400000127A00C8010020CA0100200948804731
:1007500009480047FEE7FEE7FEE7FEE7FEE7FEE7A3
:10076000FEE7FEE7FEE7FEE704480549054A064BBB
:10077000704700003B03000831010008C01600204C
:10078000C01C0020C0180020C018002010B504466E
:10079000CC48844208D10121042000F02DFB002127
:1007A000042000F029FB46E0C748844208D101211B
:1007B000082000F021FB0021082000F01DFB3AE09A
:1007C000C248844208D10121102000F015FB00210D
:1007D000102000F011FB2EE0BD48844208D1012119
:1007E000202000F009FB0021202000F005FB22E082
:1007F000B848844208D10121402000F0FDFA0021D0
:10080000402000F0F9FA16E0B348844208D10121F3
:10081000802000F0F1FA0021802000F0EDFA0AE0DB
:10082000AE48844207D10121801500F0E5FA00218D
:10083000A01500F0E1FA10BD10B50121084600F046
:10084000DBFA0021012000F0D7FA10BD2DE9F041BC
:10085000024600250026002000230024002791F8EE
:1008600003C00CF00F0591F803C00CF0100CBCF1A4
:10087000000F03D091F802C04CEA050591F800C0C2
:10088000BCF1000F31D0146800202BE04FF0010CB8
:100890000CFA00F3B1F800C00CEA03069E4220D126
:1008A00083004FF00F0C0CFA03F7BC4305FA03FC6E
:1008B0004CEA040491F803C0BCF1280F06D14FF0B4
:1008C000010C0CFA00FCC2F814C00AE091F803C055
:1008D000BCF1480F05D14FF0010C0CFA00FCC2F836
:1008E00010C0401C0828D1D31460B1F800C0BCF17E
:1008F000FF0F34DD546800202EE000F1080C4FF0AB
:10090000010808FA0CF3B1F800C00CEA03069E4295
:1009100021D183004FF00F0C0CFA03F7BC4305FA0A
:1009200003FC4CEA040491F803C0BCF1280F05D184
:1009300000F1080C08FA0CF8C2F8148091F803C012
:10094000BCF1480F07D100F1080C4FF0010808FA7C
:100950000CF8C2F81080401C0828CED35460BDE8C3
:10096000F0814FF6FF710180022181700421C17076
:1009700070470246002093680B400BB1012000E055
:10098000002070470146886880B270470246002008
:10099000D3680B400BB1012000E0002070470146F6
:1009A000C86880B2704701617047416170470AB101
:1009B000016100E041617047C16070474FF48032CF
:1009C0000A4382618161826182698269704702465D
:1009D0000020434B18684FF68073184040EA02101D
:1009E00008433F4B186070473E49C8617047F0B5F7
:1009F0000A46002300240021002500F00046B6F13D
:100A0000004F02D1364EF16901E0354E7168C0F3F6
:100A1000034583B200F44016B6F5401F08D121F01B
:100A200070612F4E766826F070662D4F7E6012E062
:100A300000F48016B6F5801F06D1032606FA05F4E9
:100A4000A14341F0706106E0460D360103FA06F657
:100A5000B14341F0706122B1460D360103FA06F64A
:100A6000314300F00046B6F1004F02D11C4EF16157
:100A700001E01B4E7160F0BD30B500228B071C0FEA
:100A80000F2303FA04F2164B08338C1053F824306A
:100A90009343134C08348D1044F8253023468C10B2
:100AA00053F824308C07240F00FA04F423430C4C31
:100AB00008348D1044F8253030BD0A49DC31086017
:100AC0007047000000080140000C01400010014088
:100AD0000014014000180140001C014000200140AA
:100AE0000000014000002042DF48006840F00100A3
:100AF000DD49086008464068DC490840DA4948603A
:100B000008460068DA490840D74908600846006886
:100B100020F4802008600846406820F4FE00486009
:100B20004FF41F0088607047CF49096821F4803175
:100B3000CD4A11601146096821F480211160B0F599
:100B4000803F03D0B0F5802F0ED106E0C64909687A
:100B500041F48031C44A116007E0C349096841F497
:100B6000A021C14A116000E000BF00BF704710B56E
:100B700001460022002300204A11012A02D1BA4C6A
:100B8000236806E0022A02D1B74C236A01E0B64C82
:100B9000636A01F01F02012494401C400CB1012043
:100BA00000E0002010BD38B5002000900024002592
:100BB00000BF3120FFF7DBFF05460098401C009086
:100BC0000098B0F5A06F01D0002DF2D03120FFF7D2
:100BD000CEFF08B1012400E00024204638BD0146C4
:100BE0000020A14A106820F0F80040EAC10010601F
:100BF0007047A04908607047024600209A4B586829
:100C000020F47C1042EA01031843974B5860704768
:100C100098490866704701460020934A506820F0C2
:100C200003000843506070478F48406800F00C0094
:100C30007047014600208C4A506820F0F0000843BD
:100C40005060704701460020874A506820F4E060F9
:100C500008435060704701460020834A506820F4E2
:100C6000605040EAC1005060704729B17E4A527A14
:100C700002437D4B5A7204E07B4A527A82437A4B9C
:100C80005A7270477B49D83108607047014600208E
:100C9000754A506820F44040084350607047002176
:100CA000714A20321170704A82F82010012802D057
:100CB00004280AD104E001216B4A2032117005E0BA
:100CC0000521694A2032117000E000BF00BF704763
:100CD0006949086070476449096A0143624A1162C0
:100CE0007047654944390860704730B500210022DB
:100CF000002400235C4D6D6805F00C0121B104292E
:100D000005D0082923D105E05C4D056022E05B4D4C
:100D100005601FE0544D6D6805F47012524D6D680A
:100D200005F48034022505EB92421CB9544D55431D
:100D300005600BE04C4D6D6805F400351DB1504D5C
:100D40005543056002E04D4D5543056002E04B4DB3
:100D5000056000BF00BF444D6D6805F0F001090952
:100D6000484D6B5C0568DD4045603F4D6D6805F49E
:100D7000E061090A434D6B5C4568DD4085603A4D92
:100D80006D6805F46051C90A3E4D6B5C4568DD40F5
:100D9000C560354D6D6805F44041890B3A4D6B5C7B
:100DA000C568B5FBF3F5056130BD29B12E4A52691E
:100DB00002432D4B5A6104E02B4A526982432A4B6D
:100DC0005A61704729B1284A92690243264B9A61B9
:100DD00004E0254A92698243234B9A61704729B106
:100DE000214AD2690243204BDA6104E01E4AD269EB
:100DF00082431D4BDA61704729B11B4AD268024316
:100E0000194BDA6004E0184AD2688243164BDA6064
:100E1000704729B1144A12690243134B1A6104E066
:100E2000114A12698243104B1A61704712494039C6
:100E3000086070470F49C86470470B49C871704714
:100E40000948406A40F0807007494862704701468F
:100E50000020054A92680A400AB1012000E0002003
:100E60007047014988727047001002400000FFF887
:100E7000FFFFF6FE000042428004424200127A0068
:100E800000093D00CC010020DC0100203149014374
:100E9000314A1160704770B5002100230F22C478D9
:100EA00004B32D4C246804F4E064C4F5E064210A22
:100EB000C1F10403CA40447804FA03F18478144071
:100EC00021430901254C0678A155047804F01F053B
:100ED0000124AC4005786D11AD0005F1E025C5F8A1
:100EE000004109E0047804F01F050124AC401C4DCA
:100EF0000678761145F8264070BD1A4A0A4002432A
:100F0000154B1B1F1A60704739B1134A121D126826
:100F10000243114B1B1D1A6006E00F4A121D126896
:100F200082430D4B1B1D1A607047042808D14FF0F7
:100F3000E021096941F004014FF0E022116107E06E
:100F40004FF0E021096921F004014FF0E022116126
:100F5000704700000000FA050CED00E000E400E03E
:100F600080E100E080FFFF1F01684FF6FE72114034
:100F700001600021016041608160C1608D4988424B
:100F800008D18C490839496841F00F01894A083A6B
:100F900051608AE087491431884208D1854908396F
:100FA000496841F0F001834A083A51607DE0814987
:100FB0002831884208D17F490839496841F4706175
:100FC0007C4A083A516070E07A493C31884208D145
:100FD00078490839496841F47041764A083A5160C5
:100FE00063E074495031884208D172490839496830
:100FF00041F470216F4A083A516056E06D496431FE
:10100000884208D16B490839496841F47001694A3E
:10101000083A516049E067497831884208D165490A
:101020000839496841F07061624A083A51603CE011
:101030006149884206D1011F096841F00F01021F72
:10104000116032E05C491431884208D15A49091FC5
:10105000096841F0F001584A121F116025E0564915
:101060002831884208D15449091F096841F4706148
:10107000514A121F116018E04F493C31884208D193
:101080004D49091F096841F470414B4A121F116014
:101090000BE049495031884207D14749091F096887
:1010A00041F47021444A121F1160704710B50022AC
:1010B000026847F6F0739A430C6A8B6823430C6905
:1010C00023434C6923438C692343CC6923434C6AF3
:1010D00023438C6A23431A430260CB6843600B6846
:1010E00083604B68C36010BD002101604160816076
:1010F000C160016141618161C161016241628162DE
:10110000704721B1026842F00102026004E0026807
:101110004FF6FE731A40026070471AB103680B4322
:10112000036002E003688B430360704741607047CF
:101130000146486880B2704701460020002201F055
:1011400080531BB11C4B083B1A6802E0194B083B4B
:101150001A6802EA01030BB1012000E00020704789
:1011600000F0805119B11449091F086002E01149CB
:1011700008394860704701460020002201F0805382
:101180001BB10D4B083B1A6802E00A4B083B1A687A
:1011900002EA01030BB1012000E00020704700F0DB
:1011A000805119B10449091F086002E0014908395A
:1011B00048607047080002400804024010B5044629
:1011C000BE48844208D101218014FFF715FE00219A
:1011D000A014FFF711FE16E0B948844208D101219E
:1011E0000014FFF716FE00212014FFF712FE0AE09C
:1011F000B448844207D10121C013FFF70AFE002141
:10120000E013FFF706FE10BD10B50022028802F4BD
:1012100041520B884C8823438C882343CC8823433A
:101220000C8923434C8923438C892343CC89234352
:101230001A430280838B4FF2FF74234083830B8A0F
:10124000038210BD2DE9F04F85B005460C464FF0E6
:10125000000902274FF000084FF0010B0026B246AC
:10126000A88B4FF240010840A88302202884B5F8DB
:101270001C90A068022801D100BF38E0A08810B9F6
:101280004FF0010B01E04FF0020B8D48854200D179
:1012900000E000BF6846FFF728FDDDF800A0E08809
:1012A000B0F5007F0AD14FEA1A2000EB8000400021
:1012B000A168B0FBF1F0401D86B20BE04FEA4B1085
:1012C000BAFBF0F000EB80004000A168B0FBF1F049
:1012D000401D86B20A20B6FBF0F606F00108A6EB28
:1012E0000800C0F34F074FF6FF7000EA0828022FEE
:1012F00001DBFF2F02DD02274FF00008E08840EA03
:10130000080038432884A088A189084361880843DD
:101310002188084340F4006040EA0909A5F81C90C0
:1013200005B0BDE8F08F0021018041808180C1803F
:10133000018141818181C1810721018270470021A2
:10134000018041808180C1800221816000218181F2
:10135000704721B1028842F04002028004E0028816
:101360004FF6BF731A400280704721B1828B42F45E
:101370008062828304E0828B4FF6FF331A408283BF
:10138000704730B5002400230C110125A540ABB2F5
:101390001AB185881D43858002E085889D4385803C
:1013A00030BD1AB183880B43838002E083888B436E
:1013B00083807047818170470146888970474FF666
:1013C000FF62914204D0028842F48072028004E0FD
:1013D00002884FF6FF631A400280704721B182886D
:1013E00042F00402828004E082884FF6FB731A40C8
:1013F0008280704702884FF2FF731A400280028891
:101400000A4302807047018841F48051018070478F
:1014100021B1028842F40052028004E002884DF6B5
:10142000FF731A400280704702460020012901D054
:10143000108B00E0908A70470146088A7047B1F52A
:10144000804F04D1028842F48042028004E0028886
:101450004BF6FF731A400280704702460020138942
:101460000B400BB1012000E000207047CA4302810D
:101470007047F0B50246002000240023002501F04B
:101480000F070126BE40B4B20B1101269E40B3B235
:10149000968806EA03051689264016B10DB101208B
:1014A00000E00020F0BD10B5002201F00F04012380
:1014B000A3409AB2D343038110BD00000030014025
:1014C00000380040003C0040704770477047754648
:1014D00000F028F8AE4605006946534620F00700A4
:1014E000854618B020B5FFF73FF9BDE820404FF022
:1014F00000064FF000074FF000084FF0000B21F0FE
:101500000701AC46ACE8C009ACE8C009ACE8C009CA
:10151000ACE8C0098D4670470446AFF30080204612
:10152000FEF76DFE004870475C1600200149182048
:10153000ABBEFEE726000200704700005C15000805
:1015400000000020E00100006C0100089015000878
:10155000E0010020E01A0000C80100081184A24A3E
:10156000046009010203040607080932AA3277322F
:101570003332110A32051709FD48096A48612D0105
:101580000203040400090006070809020406080013
:0400000508000131BD
:00000001FF
