:020000040800F2
:10000000901C0020190C0008F9030008FB030008ED
:10001000FF030008030400080704000800000000B4
:100020000000000000000000000000000B040008B9
:100030000D040008000000000F040008110400086F
:10004000330C0008330C0008330C0008330C000894
:10005000330C0008330C0008330C0008330C000884
:10006000330C0008330C0008330C0008330C000874
:10007000330C0008330C0008330C0008330C000864
:10008000330C0008330C0008330C0008330C000854
:10009000330C0008330C0008330C0008330C000844
:1000A000330C0008330C0008330C0008330C000834
:1000B000330C0008270B0008330C0008330C000831
:1000C000330C0008330C0008330C0008330C000814
:1000D000330C0008330C0008330C0008330C000804
:1000E000330C0008330C0008330C0008330C0008F4
:1000F000330C0008330C0008330C0008330C0008E4
:10010000330C0008330C0008330C0008330C0008D3
:10011000330C0008330C0008330C0008330C0008C3
:10012000330C0008330C0008330C0008330C0008B3
:1001300000F002F800F05AF80AA090E8000C82449F
:100140008344AAF10107DA4501D100F04FF8AFF27C
:10015000090EBAE80F0013F0010F18BFFB1A43F0A5
:10016000010318476C2A00008C2A00000A444FF053
:10017000000C10F8013B13F0070408BF10F8014B06
:100180001D1108BF10F8015B641E05D010F8016B4B
:10019000641E01F8016BF9D113F0080F1EBF10F8AF
:1001A000014BAD1C0C1B09D16D1E58BF01F801CBD2
:1001B000FAD505E014F8016B01F8016B6D1EF9D555
:1001C0009142D6D37047000000230024002500266A
:1001D000103A28BF78C1FBD8520728BF30C148BFAA
:1001E0000B6070471FB51FBD10B510BD02F0E2FADD
:1001F0001146FFF7F7FF00F0DEF802F000FB03B452
:10020000FFF7F2FF03BC02F005FB000010B57448D5
:100210004079012821D10020714948710846C079F0
:10022000012804D0022815D0042815D113E06D4808
:100230000078012803D104206A49087009E00120F0
:1002400068490870002000F0DCFA6C21664800F074
:1002500083FA01E000E000BF00BF10BD10B56148A7
:100260000078052877D2DFE800F0030DA0A1A200F6
:100270006C215D4800F070FA642000F0A0FC00F0F2
:10028000AEFA96E059480078082876D2DFE800F008
:10029000041525344453647601224FF47F016FF036
:1002A0007F4000F0C2FA4FF4FA7000F088FC4F482B
:1002B0000078401C4D49087075E001224C494FF40C
:1002C0007F0000F0B2FA4FF4FA7000F078FC474873
:1002D0000078401C4549087065E0012245494448C2
:1002E00000F0A3FA4FF4FA7000F069FC3F48007880
:1002F000401C3E49087056E001224FF47F413D48C2
:1003000000F093FA4FF4FA7000F059FC3748007887
:10031000401C3649087046E00122FF21080200F027
:1003200084FA4FF4FA7000F04AFC30480078401C20
:100330002E49087037E001224FF6FF71FF2000F0D0
:1003400074FA4FF4FA7000F03AFC28480078401C28
:100350002649087027E02BE001224FF0FF114FF6ED
:10036000FF7000F062FA4FF4FA7000F028FC1F48AA
:100370000078401C1D49087015E010E001226FF064
:100380007F414FF0FF1000F050FA4FF4FA7000F088
:1003900016FC16480078401C1449087003E0002041
:1003A0001249087000BF00BF03E002E001E000E076
:1003B00000BF00BF10BD00F0C5FB00F01BF900F04E
:1003C00035F900F0F1FA40F2CF2140F2E73000F0C9
:1003D0007DFB03E0FFF742FFFFF718FFFAE700009D
:1003E000D00100200000002020000020010000209B
:1003F000007DFF0000FFFF00704700BFFEE700BF69
:10040000FEE700BFFEE700BFFEE77047704770479A
:10041000704700000CB50020019000906C48006807
:1004200040F480306A49086000BF6948006800F401
:10043000003000900198401C0190009818B9019874
:10044000B0F5A06FF1D16248006800F4003010B13F
:100450000120009001E0002000900098012843D185
:100460005C48006840F010005A490860084600687F
:1004700020F0030008600846006840F002000860B1
:1004800053484068524948600846406848600846FA
:10049000406840F4806048600846406820F47C1062
:1004A00048600846406840F4E81048600846006824
:1004B00040F08070086000BF4548006800F00070A0
:1004C0000028F9D04248406820F0030040494860C5
:1004D0000846406840F00200486000BF3C48406861
:1004E00000F00C000828F9D10CBD10B5FFF792FF01
:1004F00010BD10B53648006840F00100344908606E
:100500000846406834490840314948600846006858
:10051000324908402E4908600846006820F48020CF
:1005200008600846406820F4FE0048604FF41F0051
:100530008860FFF7DAFF4FF000602949086010BDBE
:1005400010B5002100200022214B5B6803F00C0154
:1005500021B1042906D0082928D107E0214B224CDB
:10056000236027E01F4B204C236023E0184B5B687F
:1005700003F47010164B5B6803F48032022303EB24
:10058000904022B9194B4343174C23600DE0104BA8
:100590005B6803F4003323B1144B4343124C2360D4
:1005A00003E0104B4343104C236003E00D4B0E4C13
:1005B000236000BF00BF064B5B68C3F303130C4C02
:1005C000E15C094B1B68CB40074C236010BD000069
:1005D00000100240002002400000FFF8FFFFF6FE7E
:1005E00008ED00E000127A000400002000093D0040
:1005F0000800002008B50121082000F049FE4FF452
:100600007070ADF8000010208DF8030003208DF805
:1006100002006946044800F07FFB4FF47071024805
:1006200000F029FC08BD0000000C014000B591B0AD
:100630000121084600F01FFE012141F2040000F0F4
:1006400027FED24800F0F6FE00200390D04800902C
:10065000D048019010200290002009900490802042
:1006600005904000069080000790002008906946A1
:10067000C64800F081FF8020ADF8400018208DF8BA
:10068000430003208DF8420010A9C34800F044FB4A
:10069000BF480C3800F0F8FF4FF44040ADF82C0094
:1006A0004FF48270ADF82E004FF40060ADF83000CA
:1006B0000020ADF83200ADF834004FF40070ADF812
:1006C00036000820ADF838000020ADF83A000720C9
:1006D000ADF83C000BA9AE480C3800F0FBFF01223E
:1006E0000221AB480C3801F0C2F80121A8480C38AF
:1006F00001F095F811B000BDA649A84A128821F86A
:100700001200A6490988491CA44A1180704710B5F7
:100710000446002380230BE004EA030111B14FF6E5
:10072000F07101E04FF470410846FFF7E5FF5B1000
:10073000012BF1DA10BDF0B50446C4F30745C4F34C
:100740000726E7B23046FFF7E2FF2846FFF7DFFF54
:100750003846FFF7DCFFF0BD70B506460C460025B5
:100760008A4800F04BFF38BB00BF05E056F8250073
:10077000FFF7E1FF681CC5B2A542F7D30020874907
:10078000088004EB4400C000143081B27F4800F0C0
:1007900033FF01217D4800F01AFF00BF4FF40070C5
:1007A00000F030FF0028F9D00021784800F00FFF5A
:1007B0004FF4007000F03AFF70BD794A11680020D4
:1007C00007E0774B421C53F8222043F82020421CBC
:1007D000D0B26B28F5DB724AC2F8AC117047704A90
:1007E000D2F8AC116B2007E0421E6D4B53F822206B
:1007F00043F82020421ED0B20028F5DC684A116080
:100800007047684A1060002104E0654A42F8210000
:100810004A1CD1B26C29F8DB70470146002901DD82
:10082000C8B270474942C8B2FBE72DE9F74F8CB018
:1008300005460C465B480460C5F3074BC5F307202B
:100840000B90E8B20A90C4F307400990C4F3072064
:100850000890E0B207900998A0EB0B0006900B9966
:100860000898401A05900A990798401A049006982B
:10087000FFF7D3FF02460598FFF7CFFF824203DD63
:100880000698FFF7CAFF02E00598FFF7C6FF074684
:100890000498FFF7C2FFB84201DA384602E0049834
:1008A000FFF7BBFF0746384602F0B2F80190069802
:1008B00002F096F80090019901F0B4FF03903846D9
:1008C00002F0A6F80190059802F08AF800900199CC
:1008D00001F0A8FF0290384602F09AF801900498BF
:1008E00002F07EF80090019901F09CFF80460026FE
:1008F00046E0304602F08CF80090039902F09CF834
:10090000019002F051F85844C0B20990304602F00C
:100910007FF80090029902F08FF8019002F044F8FD
:100920000B990844C0B20890304602F071F8414675
:10093000009002F081F8019002F036F80A9908441C
:10094000C0B2079009980104089841EA002007996D
:1009500040EA01094FF0000A06E0114840F82A90E9
:100960000AF1010000F0FF0ABAF16C0FF5DB6C210F
:100970000B48FFF7F1FE0E9800F0FDF8701CC6B2B0
:10098000BE42B6DB48460FB0BDE8F08F30000240F3
:100990000C300140F0010020000801401800002048
:1009A000200000201C00002008B50121082000F0D4
:1009B0006FFC4FF44260ADF8000048208DF8030052
:1009C00069463F4800F0A8F908BD3E48006830B9C4
:1009D0003D48007840F001003B49087005E03A4886
:1009E000007800F0FE00384908703648143000687E
:1009F00030B93548007840F002003349087005E00E
:100A00003148007800F0FD002F4908702D4818305B
:100A1000006830B92C48007840F004002A4908707A
:100A200005E02948007800F0FB00274908702648B7
:100A3000007825494978884206D0002022498870EC
:100A40000846007848703AE01F488078C82828DABD
:100A50001D488078401C1C4988700846807808280A
:100A60002DD10846007878B9002088700846C078F3
:100A7000012804D14871887108460079C8710020A6
:100A80001149C87008711AE001200F49C870084662
:100A900000790978884212DA0B4800780A4908710F
:100AA0000DE00948C078022809D0012006494871A4
:100AB0000220887108460079C8710220C87070470A
:100AC000000C014014812142D00100207FB5054671
:100AD0000C460121022000F0E8FBADF80850ADF80B
:100AE00004400020ADF80A00ADF8060001A9144842
:100AF00001F024F801221146114801F096FB1D2057
:100B00008DF8000000208DF8010003208DF8020010
:100B100001208DF80300684600F023FC01210848FD
:100B200001F068FB7FBD10B50121054801F02BFEE7
:100B300028B10121024801F037FEFFF746FF10BD42
:100B40000004004010B56FF0040000F054FC2E4883
:100B500000682E49B0FBF1F02D4908700846007876
:100B600000EB4001C1EBC0104FF6FF7101EAC0007D
:100B70002849088010BD0146254A12784A434FF0A3
:100B8000E0235A6100229A611A46126942F001027A
:100B90001A6100BF4FF0E022106900F001021AB1A3
:100BA00000F48032002AF5D04FF0E022126922F0E2
:100BB00001024FF0E0231A6100229A61704701465A
:100BC000144A12884A434FF0E0235A6100229A6186
:100BD0001A46126942F001021A6100BF4FF0E0228A
:100BE000106900F001021AB100F48032002AF5D039
:100BF0004FF0E022126922F001024FF0E0231A6167
:100C000000229A61704700000400002000127A0060
:100C1000D8010020DA010020094880470948004730
:100C2000FEE7FEE7FEE7FEE7FEE7FEE7FEE7FEE79C
:100C3000FEE7FEE704480549054A064B70470000F9
:100C4000F30400083101000890160020901C0020D9
:100C5000901800209018002010B50446CC4884421B
:100C600008D10121042000F02DFB0021042000F018
:100C700029FB46E0C748844208D10121082000F042
:100C800021FB0021082000F01DFB3AE0C24884420D
:100C900008D10121102000F015FB0021102000F0E8
:100CA00011FB2EE0BD48844208D10121202000F034
:100CB00009FB0021202000F005FB22E0B848844217
:100CC00008D10121402000F0FDFA0021402000F071
:100CD000F9FA16E0B348844208D10121802000F0DF
:100CE000F1FA0021802000F0EDFA0AE0AE488442DB
:100CF00007D10121801500F0E5FA0021A01500F0D0
:100D0000E1FA10BD10B50121084600F0DBFA002120
:100D1000012000F0D7FA10BD2DE9F0410246002570
:100D20000026002000230024002791F803C00CF0C7
:100D30000F0591F803C00CF0100CBCF1000F03D0AC
:100D400091F802C04CEA050591F800C0BCF1000F13
:100D500031D0146800202BE04FF0010C0CFA00F3A6
:100D6000B1F800C00CEA03069E4220D183004FF088
:100D70000F0C0CFA03F7BC4305FA03FC4CEA04041D
:100D800091F803C0BCF1280F06D14FF0010C0CFA0A
:100D900000FCC2F814C00AE091F803C0BCF1480F8F
:100DA00005D14FF0010C0CFA00FCC2F810C0401C39
:100DB0000828D1D31460B1F800C0BCF1FF0F34DDB6
:100DC000546800202EE000F1080C4FF0010808FAEA
:100DD0000CF3B1F800C00CEA03069E4221D1830057
:100DE0004FF00F0C0CFA03F7BC4305FA03FC4CEA76
:100DF000040491F803C0BCF1280F05D100F1080CE0
:100E000008FA0CF8C2F8148091F803C0BCF1480F3E
:100E100007D100F1080C4FF0010808FA0CF8C2F8ED
:100E20001080401C0828CED35460BDE8F0814FF6F6
:100E3000FF710180022181700421C1707047024658
:100E4000002093680B400BB1012000E000207047A8
:100E50000146886880B2704702460020D3680B4084
:100E60000BB1012000E0002070470146C86880B245
:100E7000704701617047416170470AB1016100E04C
:100E800041617047C16070474FF480320A4382610C
:100E90008161826182698269704702460020434B0A
:100EA00018684FF68073184040EA021008433F4B21
:100EB000186070473E49C8617047F0B50A46002384
:100EC00000240021002500F00046B6F1004F02D1B9
:100ED000364EF16901E0354E7168C0F3034583B2C7
:100EE00000F44016B6F5401F08D121F070612F4E76
:100EF000766826F070662D4F7E6012E000F4801652
:100F0000B6F5801F06D1032606FA05F4A14341F089
:100F1000706106E0460D360103FA06F6B14341F072
:100F2000706122B1460D360103FA06F6314300F036
:100F30000046B6F1004F02D11C4EF16101E01B4E9C
:100F40007160F0BD30B500228B071C0F0F2303FA30
:100F500004F2164B08338C1053F824309343134C8F
:100F600008348D1044F8253023468C1053F8243073
:100F70008C07240F00FA04F423430C4C08348D1022
:100F800044F8253030BD0A49DC3108607047000064
:100F900000080140000C0140001001400014014015
:100FA00000180140001C01400020014000000140E9
:100FB00000002042DF48006840F00100DD49086081
:100FC00008464068DC490840DA494860084600683D
:100FD000DA490840D74908600846006820F48020B4
:100FE00008600846406820F4FE0048604FF41F0087
:100FF00088607047CF49096821F48031CD4A11607B
:101000001146096821F480211160B0F5803F03D0BA
:10101000B0F5802F0ED106E0C649096841F4803151
:10102000C44A116007E0C349096841F4A021C14ADC
:10103000116000E000BF00BF704710B501460022FC
:10104000002300204A11012A02D1BA4C236806E08D
:10105000022A02D1B74C236A01E0B64C636A01F060
:101060001F02012494401C400CB1012000E000202C
:1010700010BD38B5002000900024002500BF3120AD
:10108000FFF7DBFF05460098401C00900098B0F584
:10109000A06F01D0002DF2D03120FFF7CEFF08B1B4
:1010A000012400E00024204638BD01460020A14A6A
:1010B000106820F0F80040EAC10010607047A049B5
:1010C00008607047024600209A4B586820F47C1054
:1010D00042EA01031843974B5860704798490866E5
:1010E000704701460020934A506820F003000843EF
:1010F000506070478F48406800F00C007047014610
:1011000000208C4A506820F0F0000843506070477F
:1011100001460020874A506820F4E0600843506090
:10112000704701460020834A506820F4605040EA2E
:10113000C1005060704729B17E4A527A02437D4B0C
:101140005A7204E07B4A527A82437A4B5A72704751
:101150007B49D8310860704701460020754A5068C5
:1011600020F440400843506070470021714A20320B
:101170001170704A82F82010012802D004280AD188
:1011800004E001216B4A2032117005E00521694A13
:101190002032117000E000BF00BF7047694908604D
:1011A00070476449096A0143624A116270476549A0
:1011B00044390860704730B5002100220024002324
:1011C0005C4D6D6805F00C0121B1042905D008299A
:1011D00023D105E05C4D056022E05B4D05601FE01A
:1011E000544D6D6805F47012524D6D6805F48034ED
:1011F000022505EB92421CB9544D554305600BE0A6
:101200004C4D6D6805F400351DB1504D55430560DA
:1012100002E04D4D5543056002E04B4D056000BFB7
:1012200000BF444D6D6805F0F0010909484D6B5C45
:101230000568DD4045603F4D6D6805F4E061090AD1
:10124000434D6B5C4568DD4085603A4D6D6805F443
:101250006051C90A3E4D6B5C4568DD40C560354D47
:101260006D6805F44041890B3A4D6B5CC568B5FB70
:10127000F3F5056130BD29B12E4A526902432D4B69
:101280005A6104E02B4A526982432A4B5A617047E3
:1012900029B1284A92690243264B9A6104E0254A03
:1012A00092698243234B9A61704729B1214AD269DE
:1012B0000243204BDA6104E01E4AD26982431D4B8F
:1012C000DA61704729B11B4AD2680243194BDA60D0
:1012D00004E0184AD2688243164BDA60704729B19D
:1012E000144A12690243134B1A6104E0114A12694D
:1012F0008243104B1A6170471249403908607047A9
:101300000F49C86470470B49C87170470948406A63
:1013100040F0807007494862704701460020054A46
:1013200092680A400AB1012000E00020704701499C
:1013300088727047001002400000FFF8FFFFF6FEC1
:10134000000042428004424200127A0000093D003F
:10135000DC010020EC01002031490143314A1160D9
:10136000704770B5002100230F22C47804B32D4CC0
:10137000246804F4E064C4F5E064210AC1F10403C4
:10138000CA40447804FA03F18478144021430901E7
:10139000254C0678A155047804F01F050124AC40C3
:1013A00005786D11AD0005F1E025C5F8004109E0B3
:1013B000047804F01F050124AC401C4D067876111A
:1013C00045F8264070BD1A4A0A400243154B1B1FC0
:1013D0001A60704739B1134A121D12680243114B4B
:1013E0001B1D1A6006E00F4A121D126882430D4B46
:1013F0001B1D1A607047042808D14FF0E0210969CD
:1014000041F004014FF0E022116107E04FF0E021CC
:10141000096921F004014FF0E022116170470000DA
:101420000000FA050CED00E000E400E080E100E0DF
:1014300080FFFF1F01684FF6FE721140016000211E
:10144000016041608160C1608D49884208D18C494A
:101450000839496841F00F01894A083A51608AE029
:1014600087491431884208D185490839496841F0D3
:10147000F001834A083A51607DE081492831884271
:1014800008D17F490839496841F470617C4A083ABB
:10149000516070E07A493C31884208D17849083976
:1014A000496841F47041764A083A516063E07449F2
:1014B0005031884208D172490839496841F4702195
:1014C0006F4A083A516056E06D496431884208D14C
:1014D0006B490839496841F47001694A083A51601A
:1014E00049E067497831884208D165490839496837
:1014F00041F07061624A083A51603CE061498842BB
:1015000006D1011F096841F00F01021F116032E08E
:101510005C491431884208D15A49091F096841F0D1
:10152000F001584A121F116025E0564928318842BF
:1015300008D15449091F096841F47061514A121FCA
:10154000116018E04F493C31884208D14D49091FCC
:10155000096841F470414B4A121F11600BE0494980
:101560005031884207D14749091F096841F4702169
:10157000444A121F1160704710B50022026847F6F6
:10158000F0739A430C6A8B6823430C6923434C69BC
:1015900023438C692343CC6923434C6A23438C6ADD
:1015A00023431A430260CB6843600B6883604B6837
:1015B000C36010BD0021016041608160C1600161B4
:1015C00041618161C161016241628162704721B103
:1015D000026842F00102026004E002684FF6FE7306
:1015E0001A40026070471AB103680B43036002E0BF
:1015F00003688B4303607047416070470146486849
:1016000080B2704701460020002201F080531BB1D8
:101610001C4B083B1A6802E0194B083B1A6802EAA7
:1016200001030BB1012000E00020704700F0805161
:1016300019B11449091F086002E0114908394860CE
:10164000704701460020002201F080531BB10D4B72
:10165000083B1A6802E00A4B083B1A6802EA0103D9
:101660000BB1012000E00020704700F0805119B15B
:101670000449091F086002E00149083948607047C1
:10168000080002400804024010B50446BE488442E7
:1016900008D101218014FFF715FE0021A014FFF7E7
:1016A00011FE16E0B948844208D101210014FFF769
:1016B00016FE00212014FFF712FE0AE0B44884420F
:1016C00007D10121C013FFF70AFE0021E013FFF745
:1016D00006FE10BD10B50022028802F441520B88AC
:1016E0004C8823438C882343CC8823430C89234391
:1016F0004C8923438C892343CC8923431A4302809A
:10170000838B4FF2FF74234083830B8A038210BDC7
:101710002DE9F04F85B005460C464FF00009022731
:101720004FF000084FF0010B0026B246A88B4FF295
:1017300040010840A88302202884B5F81C90A068C6
:10174000022801D100BF38E0A08810B94FF0010B8A
:1017500001E04FF0020B8D48854200D100E000BF50
:101760006846FFF728FDDDF800A0E088B0F5007FAF
:101770000AD14FEA1A2000EB80004000A168B0FBBC
:10178000F1F0401D86B20BE04FEA4B10BAFBF0F0CF
:1017900000EB80004000A168B0FBF1F0401D86B274
:1017A0000A20B6FBF0F606F00108A6EB0800C0F32D
:1017B0004F074FF6FF7000EA0828022F01DBFF2FCA
:1017C00002DD02274FF00008E08840EA08003843B5
:1017D0002884A088A1890843618808432188084398
:1017E00040F4006040EA0909A5F81C9005B0BDE886
:1017F000F08F0021018041808180C1800181418181
:101800008181C181072101827047002101804180CF
:101810008180C1800221816000218181704721B1D6
:10182000028842F04002028004E002884FF6BF7353
:101830001A400280704721B1828B42F48062828319
:1018400004E0828B4FF6FF331A408283704730B535
:10185000002400230C110125A540ABB21AB18588E4
:101860001D43858002E085889D43858030BD1AB187
:1018700083880B43838002E083888B438380704797
:10188000818170470146888970474FF6FF62914217
:1018900004D0028842F48072028004E002884FF68D
:1018A000FF631A400280704721B1828842F004022F
:1018B000828004E082884FF6FB731A408280704772
:1018C00002884FF2FF731A40028002880A430280A6
:1018D0007047018841F480510180704721B102882E
:1018E00042F40052028004E002884DF6FF731A4071
:1018F0000280704702460020012901D0108B00E0D1
:10190000908A70470146088A7047B1F5804F04D12C
:10191000028842F48042028004E002884BF6FF73A2
:101920001A40028070470246002013890B400BB119
:10193000012000E000207047CA4302817047F0B5E3
:101940000246002000240023002501F00F07012695
:10195000BE40B4B20B1101269E40B3B2968806EA8F
:1019600003051689264016B10DB1012000E00020C4
:10197000F0BD10B5002201F00F040123A3409AB27C
:10198000D343038110BD0000003001400038004007
:10199000003C004010B50446FE48844208D10121B5
:1019A000C014FFF78FFC0021E014FFF78BFCC4E0AC
:1019B000B4F1804F08D101210846FFF790FC0021C7
:1019C0000120FFF78CFCB8E0F348844208D10121E4
:1019D0000220FFF784FC00210220FFF780FCACE02E
:1019E000EE48844208D101210420FFF778FC002151
:1019F0000420FFF774FCA0E0E948844208D10121EB
:101A00000820FFF76CFC00210820FFF768FC94E039
:101A1000E448844208D101211020FFF760FC002136
:101A20001020FFF75CFC88E0DF48844208D10121E8
:101A30002020FFF754FC00212020FFF750FC7CE021
:101A4000DA48844208D101214014FFF73BFC002111
:101A50006014FFF737FC70E0D548844209D10121BA
:101A6000C804FFF72FFC00214FF40020FFF72AFCE9
:101A700063E0D048844209D101210805FFF722FC28
:101A800000214FF48010FFF71DFC56E0CA48844245
:101A900009D101214805FFF715FC00214FF4001082
:101AA000FFF710FC49E0C548844208D101214020DD
:101AB000FFF715FC00214020FFF711FC3DE0C04876
:101AC000844208D101218020FFF709FC00218020F9
:101AD000FFF705FC31E0BB48844208D101218015A5
:101AE000FFF7FDFB0021A015FFF7F9FB25E0B64845
:101AF000844209D101210804FFF7E4FB00214FF4DF
:101B00008030FFF7DFFB18E0B048844209D10121A3
:101B10004804FFF7D7FB00214FF40030FFF7D2FB5A
:101B20000BE0AB48844208D101218804FFF7CAFBCF
:101B300000214FF48020FFF7C5FB10BD0022028872
:101B4000944B98420ED0994B98420BD0B0F1804FF5
:101B500008D0914B984205D0904B984202D0904BC0
:101B6000984204D14FF68F731A404B881A438D4B1D
:101B7000984207D08C4B984204D04FF6FF431A404E
:101B8000CB881A4302808B8883850B880385814B21
:101B900098420BD0854B984208D08B4B984205D089
:101BA0008A4B984202D08A4B984201D10B7A038625
:101BB00001238382704770B5002400220023058C26
:101BC0004FF6FE7635400584028C8388048B4FF6F1
:101BD0008F752C40B51E2C400D882C43751E2A4055
:101BE0000D892A434D882A436A4DA8420BD06F4D78
:101BF000A84208D0744DA84205D0744DA84202D026
:101C0000734DA84213D14FF6F7752A404D892A43E8
:101C10004FF6FB752A408D882A434FF6FF652B400F
:101C20004FF6FF552B408D892B43CD892B43838065
:101C30000483CD888586028470BD70B5002400229F
:101C40000023058C4FF6EF7635400584028C83889F
:101C5000048B48F6FF752C404FF6FF452C400D884D
:101C60004FF6FF7606EA05252C434FF6DF752A402E
:101C70000D8906EA05152A434D8806EA05152A430B
:101C8000444DA84202D0494DA8421DD14FF67F7560
:101C90002A404D894FF6FF7606EA05152A434FF68E
:101CA000BF752A408D8806EA05152A434FF6FF3591
:101CB0002B404FF2FF752B408D8906EA85052B439B
:101CC000CD8906EA85052B4383800483CD8805876B
:101CD000028470BD70B5002400220023058C4FF6ED
:101CE000FF6635400584028C8388848B4FF68F75A0
:101CF0002C404FF6FC752C400D882C434FF6FF55B9
:101D00002A400D894FF6FF7606EA05252A434D88BD
:101D100006EA05252A431F4DA84202D0234DA842BA
:101D20001DD14FF2FF752A404D894FF6FF7606EA26
:101D300005252A434FF6FF352A408D8806EA0525FA
:101D40002A434EF6FF752B404DF6FF752B408D89CB
:101D500006EA05152B43CD8906EA05152B4383803A
:101D60008483CD888587028470BD70B500220023EE
:101D70000024058C4EF6FF7635400584038C84885C
:101D8000828B48F6FF752A404FF6FF452A400D88A2
:101D900020E00000002C014000040040000800404A
:101DA000000C0040001000400014004000340140CE
:101DB000004C014000500140005401400018004018
:101DC000001C004000200040004001400044014051
:101DD000004801404FF6FF7606EA05252A434DF6F6
:101DE000FF752B400D8906EA05352B434D8806EA21
:101DF00005352B43FA4DA84202D0FA4DA84208D12E
:101E00004BF6FF752C408D894FF6FF7606EA851557
:101E10002C4384808283CD88A0F84050038470BD19
:101E2000828B4FF2FF331A408283828B4FF6FF730F
:101E300003EA01231A4382837047F0B50C46154626
:101E4000002200210026078C4EF6FF7C07EA0C07D3
:101E50000784828B018C4FF6FF7707EA043640F641
:101E6000FF473A404FF6FF7707EA05273A434FF618
:101E7000FF7707EA03373A43D94FB8420ED0D94F1C
:101E8000B8420BD0B0F1804F08D0D74FB84205D040
:101E9000D64FB84202D0D64FB84206D14DF6FF77A2
:101EA000394046F48057394305E047F6FF5739403B
:101EB00044F48057394382830184F0BD828B4FF60E
:101EC000F3731A408283828B0A4382837047F0B592
:101ED0000C461546002200210026078C4FF6FF6CA9
:101EE00007EA0C070784828B018C4FF6FF7707EA1D
:101EF00004264FF60C773A404FF6FF7707EA0317B0
:101F00002F433A43B64FB8420ED0B64FB8420BD02B
:101F1000B0F1804F08D0B44FB84205D0B34FB842AB
:101F200002D0B34FB84206D14FF6FF57394046F4BE
:101F30008077394305E04FF2FF57394044F480770A
:101F4000394382830184F0BD028B4FF2FF331A4084
:101F50000283028B4FF6FF7303EA01231A430283C5
:101F60007047F0B50C461546002200210026078C6C
:101F70004FF6EF7C07EA0C070784028B018C4FF6C3
:101F8000FF7707EA041640F6FF473A404FF6FF771F
:101F900007EA03373A434FF6FF7707EA05273A4344
:101FA0008F4FB8420ED08F4FB8420BD0B0F1804F58
:101FB00008D08D4FB84205D08C4FB84202D08C4F1C
:101FC000B84206D14FF6DF77394046F01007394363
:101FD00005E04FF65F77394044F01007394302833C
:101FE0000184F0BD028B4FF6F3731A400283028B1B
:101FF0000A4302837047F0B50C46154600220021C3
:10200000068C4FF6FE773E400684028B018C4FF61D
:102010000C7632407E1C06EA03162E433243704E85
:10202000B0420ED06F4EB0420BD0B0F1804F08D00E
:102030006D4EB04205D06D4EB04202D06C4EB042F3
:1020400006D14FF6FD76314044F00106314305E0FC
:102050004FF6F576314044F00106314302830184A6
:10206000F0BD70B505460C465D4885420ED05D4812
:1020700085420BD0B5F1804F08D05B48854205D032
:102080005A48854202D05A48854200D100E000BF3C
:10209000208850B92389A28861882846FFF7ABFFC2
:1020A000E1882846FFF79EFF25E0208804280AD112
:1020B0002389A28861882846FFF753FFE1882846D4
:1020C000FFF742FF17E0208808280AD12389A28859
:1020D00061882846FFF7FBFEE1882846FFF7EEFE01
:1020E00009E02389A28861882846FFF7A6FEE188D7
:1020F0002846FFF795FE70BD2DE9F04105460C46D8
:1021000000260127608808B9022600E00026A08882
:10211000012801D1022700E001272088A0B92389E6
:10212000A28861882846FFF766FFE1882846FFF706
:1021300059FF23893A4631462846FFF712FFE188C6
:102140002846FFF701FF13E02389A288618828460B
:10215000FFF707FFE1882846FFF7F6FE23893A4696
:1021600031462846FFF747FFE1882846FFF73AFF48
:10217000BDE8F0810A884B881A438B881A43CB88C4
:102180001A430B891A434B891A438B891A43A0F8C7
:10219000442070474FF6FF71818000210180C1808B
:1021A0004180017270470021018041808180C1809F
:1021B000018141818181C18170470021018041807D
:1021C000012181800021C1800181704700210180AF
:1021D00041808180C18001814181818170470000FF
:1021E000002C014000340140000400400008004081
:1021F000000C004021B1028842F00102028004E09C
:1022000002884FF6FE731A400280704731B1B0F871
:10221000442042F40042A0F8442005E0B0F84420F5
:10222000C2F30E02A0F8442070471AB183890B4311
:10223000838102E083898B43838170478182704769
:1022400041EA0203A0F8483070471AB183890B4372
:10225000838102E083898B438381704701894FF634
:10226000F8721140018170470A46002101894FF63A
:102270008F73194011430181704730B504460D46F4
:1022800029462046FFF7F0FF208940F00700208113
:1022900030BD2DE9F04104460D4616461F46602D1F
:1022A00006D13B46012231462046FFF75AFE05E0A3
:1022B0003B46012231462046FFF79DFE2946204637
:1022C000FFF7D2FF208940F007002081BDE8F081B0
:1022D00030B50C4600210189C9B24FF6FF7505EAF9
:1022E0000325154325432943018130BD2DE9F041E4
:1022F00005460E4617469846002443463A46314660
:102300002846FFF7E5FF2C894FF6F870044044F0AB
:1023100007044FF68F70044044F070042C81BDE830
:10232000F081F0B504460D4616461F463B46324640
:1023300029462046FFF7CCFF208940F480402081C9
:10234000F0BD0185828270470A46002101884FF660
:102350008F731940114301807047F0B50C46154644
:102360001E460021002200230189028B038C4FF6B8
:10237000F877394021434FF6FC473A4040F20117C5
:102380003A434FF6DD773B404FF6FF7707EA0617F3
:102390002F433B43018102830384F0BD0A460021A1
:1023A000018B4FF68F7319401143018370470A4622
:1023B0000021018B48F6FF7319404FF6FF7303EAC3
:1023C00002231943018370470A460021818B4FF68F
:1023D0008F7319401143818370470A460021818B16
:1023E00048F6FF7319404FF6FF7303EA02231943BF
:1023F0008183704721B1028842F08002028004E0AC
:1024000002884FF67F731A400280704721B182889C
:1024100042F00402828004E082884FF6FB731A4087
:102420008280704721B1828842F00802828004E0F5
:1024300082884FF6F7731A408280704721B18288F4
:1024400042F00102828004E082884FF6FE731A4057
:10245000828070470A460021018B4FF6F7731940BE
:102460001143018370470A460021018B4FF2FF732D
:1024700019404FF6FF7303EA0223194301837047A3
:102480000A460021818B4FF6F7731940114381836F
:1024900070470A460021818B4FF2FF7319404FF6B7
:1024A000FF7303EA02231943818370470A46002120
:1024B000018B4FF6FB7319401143018370470A46A5
:1024C0000021018B4FF6FF3319404FF6FF7303EAEB
:1024D00002231943018370470A460021818B4FF67E
:1024E000FB7319401143818370470A460021818B99
:1024F0004FF6FF3319404FF6FF7303EA02231943E7
:10250000818370470A460021018B4FF67F73194083
:102510001143018370470A460021018BC1F30E016C
:102520004FF6FF7303EA02231943018370470A46FB
:102530000021818B4FF67F731940114381837047CF
:102540000A460021818BC1F30E014FF6FF7303EAA7
:1025500002231943818370470A460021018C4FF6FC
:10256000FD7319401143018470470A460021018C14
:102570004FF6F77319401143018470470A46002152
:10258000018C4FF6DF7319404FF6FF7303EA021315
:102590001943018470470A460021018C4FF67F736E
:1025A00019404FF6FF7303EA021319430184704781
:1025B0000A460021018C4FF6FF5319404FF6FF7376
:1025C00003EA02231943018470470A460021018C63
:1025D0004FF2FF7319404FF6FF7303EA02231943CA
:1025E000018470470A460021018C4DF6FF731940A3
:1025F0004FF6FF7303EA023319430184704730B585
:10260000002301248C40A3B2048C9C430484048CDA
:1026100002FA01F5ADB22C43048430BD30B500237D
:1026200004248C40A3B2048C9C430484048C02FADE
:1026300001F5ADB22C43048430BD70B503460020D3
:1026400000241846183001258D40ACB21D8CA543DE
:102650001D8409B1082909D100EB6100056825F046
:10266000700505600568154305600EE00D1FC5F394
:102670004E052844056825F4E045056005684FF6D9
:10268000FF7606EA02263543056070BD21B1028857
:1026900042F00202028004E002884FF6FD731A4005
:1026A0000280704721B1028842F00402028004E0F7
:1026B00002884FF6FB731A400280704721B182886E
:1026C00042F08002828004E082884FF67F731A40D5
:1026D0008280704702884FF6F7731A4002800288A2
:1026E0000A430280704782884FF68F731A408280B7
:1026F00082880A438280704702894FF6F8731A4035
:10270000028102890A430281704702894FF67F7372
:102710001A40028102890A4302817047818470470E
:102720008185704781867047018770478187704730
:10273000A0F84010704702884FF6FF431A4002800D
:1027400002880A43028070470146888E704701461E
:10275000088F70470146888F70470146B1F84000E6
:1027600070470146888C70470146088D70470246C5
:102770000020138A0B400BB1012000E000207047BD
:10278000CA430282704730B502460020002300246D
:10279000158A05EA0103958905EA010413B10CB114
:1027A000012000E0002030BDCA430282704770471C
:1027B00070477047754600F029F8AE460500694637
:1027C000534620F00700854618B020B5FEF732FAD0
:1027D000BDE820404FF000064FF000074FF0000822
:1027E0004FF0000B21F00701AC46ACE8C009ACE8A3
:1027F000C009ACE8C009ACE8C0098D467047044682
:10280000AFF300802046FDF7FAFC00000048704757
:102810003016002001491820ABBEFEE7260002005A
:10282000704700004FF47F0C1CEAD0121EBF1CEA58
:10283000D11392EA0C0F93EA0C0F00F0858090EA16
:10284000010F48BF42F4807240F4000C41F40000D4
:102850002CF07F4120F07F4000B58142A2EB0302C3
:102860000FF2081CACEB504EC0F100009EF800E0E7
:102870004FEA4E0E00FB0EFC38BF49004FEA2C1CFD
:1028800002F5FA020CFB0EF34FEACE1E4FEA112CB2
:102890004FEAC1210EEB635E42EB22420EFB0CFCC1
:1028A0004FEA1C5300FB03114FEA112C4FEA013190
:1028B0000EFB0CFC4FEADC4C00FB0C11C14228BFA4
:1028C00009184CEB03335DF804EB10EB410143EBCB
:1028D000C250B2F57C0F38BF704729D512F0F00F07
:1028E0001CBF00F1C04000F00040704700818283AF
:1028F0008485868788898B8C8D8E8F91929395960F
:1029000097999A9C9D9FA0A2A3A5A7A8AAACAEB098
:10291000B2B3B5B7B9BCBEC0C2C5C7C9CCCED1D49D
:10292000D7D9DCDFE2E6E9ECF0F3F7FAFE000000CD
:102930004FEA400C0CF1807CBCF17E4F28BF704701
:10294000B0F1C04000F03FB990EA010F0CEAD1139A
:1029500048BF42F48072624538BF634507D213F422
:102960007F0F16D080EA010000F00040704710B5DC
:1029700000F0E3F8097EFC3E00F005B880EA0100B3
:1029800000F00040704780EA010000F0004000F0D5
:102990001AB912F47F0F04BF0248704780EA0100A1
:1029A00000F011B90000C07F41000B0ED3F19E0270
:1029B00008D950F400034FEA032323FA02F048BF7A
:1029C0004042704710B500F0B8F800BF499224802B
:1029D000002070476FF0004282EA2000704700003C
:1029E00010F0004148BF4042B0FA80F310FA03F201
:1029F000C3F19D030BD051EAC35101EB12205306E2
:102A000038BF704700F1010008BF20F00100704797
:102A1000B0FA80F310FA03F2C3F19D030AD0D9058E
:102A200001EB1220530638BF704700F1010008BFC8
:102A300020F00100704700004FF47F0C1CEAD01218
:102A40001EBF1CEAD11392EA0C0F93EA0C0F00F0A0
:102A5000478090EA010F48BF42F480724FF0004C6B
:102A60004CEA00204CEA012102EB0302A0FB011317
:102A7000A2F50002002918BF43F001035B0028BF44
:102A80004FEA330342EB22425FEA132C4CEBC25075
:102A90002EBFBCEB436FB2F57C0F70474FEA036C5F
:102AA000BCF1004F08BF20F00100B2F57C0F38BF29
:102AB00070470BD582F0FF0212F5803FC8BF704708
:102AC00000F1C040D8BF00F00040704700F5000C96
:102AD0005FEA4C0C48BF7047B0F1C04000F073B8DB
:102AE00090EA010F0CEAD11348BF42F480726245AC
:102AF00038BF634504D280EA010000F0004070470F
:102B000010B500F01AF800BF8900013E00F007B8C8
:102B100000F009B85FEA410C5FEA1C6C08D080EA5B
:102B2000010000F050B85FEA400C5FEA1C6CF6D17F
:102B30004FF00040A0F5800070470EF1020E2EF01D
:102B4000030E5EF8044B244204D44FEA4102B2F172
:102B50007F4F11D84FEA4003B3F17F4F0CD80ED10D
:102B60004FEAD07CB2F17F4F0CEB4C0C0CF1020C15
:102B700008BF4CEBD17C04E04FF0080C01E04FEAB9
:102B8000D17C0CEB4C0324FA03F404F00704B4F1F9
:102B9000040C06D20EEB840CBDE810404CF0010C86
:102BA0006047DFE80CF0070802024FF00040A0F594
:102BB000800010BD0846420018BFD2F1807288BF65
:102BC00000F0004010BDFF2141EAD050C005704721
:102BD000F02B000800000020F00100006C0100084C
:102BE000242C0008F0010020A01A0000C8010008F1
:102BF0005184A24A04A0090102030406070809320D
:102C0000AA3277323332110A32051709FD48096AB0
:102C100048E12D0102030404000900060708090227
:042C2000040608009E
:0400000508000131BD
:00000001FF
